:020000040800F2
:10000000C08500209D010008F9140008590F000860
:10001000790F0008A90A00087D34000800000000DC
:10002000000000000000000000000000D9180008D7
:100030006D0C000800000000B1160008651A0008E9
:10004000B7010008B7010008B7010008B7010008B0
:10005000B7010008B7010008B7010008B7010008A0
:10006000B7010008B7010008B7010008B701000890
:10007000B7010008B7010008B7010008B701000880
:10008000B7010008B7010008B7010008B701000870
:10009000B7010008B7010008B7010008B701000860
:1000A000B7010008B7010008B7010008B701000850
:1000B000B7010008B7010008B7010008B701000840
:1000C000B7010008B7010008B7010008B701000830
:1000D000B7010008492E0008252F0008C12F00088D
:1000E000B7010008B7010008B7010008B701000810
:1000F000B7010008B7010008B7010008B701000800
:10010000B7010008B7010008B7010008B7010008EF
:10011000112D0008AD2D00081D1B0008B7010008B7
:10012000B7010008B7010008B7010008B7010008CF
:10013000B7010008B7010008B7010008B7010008BF
:10014000B7010008B7010008B7010008B7010008AF
:10015000B7010008B7010008B70100085D300008CA
:10016000B7010008B7010008B7010008B70100088F
:10017000B7010008B7010008B7010008B70100087F
:10018000B7010008B7010008DFF80CD000F02AFA28
:10019000004800477D350008C0850020064880479C
:1001A00006480047FEE7FEE7FEE7FEE7FEE7FEE75C
:1001B000FEE7FEE7FEE7FEE7A91A0008890100084E
:1001C000D2B201E000F8012B491EFBD27047002299
:1001D000F6E710B513460A4604461946FFF7F0FF46
:1001E000204610BD30B50B460146002020220124D8
:1001F00009E021FA02F59D4205D303FA02F5491BF5
:1002000004FA02F52844151EA2F10102F1DC30BD0A
:100210002DE9F05F0546002092469B46884606463B
:10022000814640241BE0284641464746224600F0CE
:1002300000FA53465A46C01A914110D31146184647
:10024000224600F0E7F92D1A67EB01084F462246D7
:100250000120002100F0DEF917EB00094E41201EBD
:10026000A4F10104DFDC484631462A464346BDE896
:10027000F09F2DE9FE4F804681EA0300C00F0C4637
:10028000009021F0004123F00045B8EB0200A941A5
:1002900005D24046214690461C460B46024623F0B6
:1002A0000040104347D0270DC7F30A00C3F30A519B
:1002B0000290401A019040286BDAC3F3130040F417
:1002C000801B0098924620B10023D2EB030A63EB17
:1002D0000B0B01985946C0F14002504600F09AF9C4
:1002E00006460D4650465946019A00F0B2F910EB09
:1002F00008006141002487EA115284EAE7731A4337
:1003000040D0009A62B3019A012A4FEA075215DCE5
:10031000001B61EB02014FF0004202EA0752CDE9F7
:100320000042001C41F5801132462B4600F0B2F924
:1003300003B0BDE8F08F40462146F9E7001B61EBB2
:100340000201001C41F5801300185B412018A2F542
:10035000001747EB030140EAD570B6196D4111E073
:100360006D084FEA360645EAC0754FEA0752001B92
:1003700061EB0201001C41F5801149084FEA300091
:100380000019514132462B4603B0BDE8F04F00F052
:1003900072B90098012240000023D0EB020263EB07
:1003A000E073009821464FEAE074B8EB000061EB7F
:1003B0000401E9E783F000435BE781F0004158E77F
:1003C0002DE9FE4F81EA030404F0004421F00041CE
:1003D00000944FF0000B23F0004350EA01045ED07C
:1003E00052EA03045BD0C3F30A54C1F30A552C4408
:1003F000A4F2F3340194A0FB0254C1F3130141F4BD
:100400008011C3F3130343F4801301FB024400FB88
:10041000034E840A970A44EA815447EA8357A4FBAF
:10042000076802958D0A05FB07854FEA932C04FBAC
:100430000C542705029D4FEA065847EA1637B5EBDC
:1004400008056EEB070C870E920E47EA811742EA09
:100450008312A7FB0201B6EB0B0164EB00042B0D2A
:1004600043EA0C335E1844EB1C50DA465146E7FB76
:100470000201C5F313044FEA0B3343EA14534FEA66
:100480000432019C43EA0603A4F10C040294009C8C
:10049000CDE900B400F0FEF803B0BDE8F08F002015
:1004A0000146F9E72DE9F04D81EA030404F0004B21
:1004B00021F0004514464FF0000A23F0004150EAB5
:1004C000050220D054EA01021DD0C5F30A570246A6
:1004D000C5F31303C1F31300C1F30A5640F48015AA
:1004E00043F48013A7EB0608101BD64608F2FD382C
:1004F00073EB050002D308F1010801E092185B419B
:10050000B8F1000F03DA00200146BDE8F08D0020AD
:100510004FF48011064684460EE0171B73EB050767
:1005200005D3121B63EB050306434CEA010C490893
:100530004FEA300092185B4150EA0107EDD152EAD0
:10054000030012D082EA040083EA0501084305D0C3
:10055000101BAB4106D20122002306E000224FF01F
:10056000004302E06FF0010253101AEB06004CEB5F
:10057000085110EB0A0041EB0B01BDE8F04D00F013
:100580007AB8C1F30A52C1F3130140F2FF3341F4C8
:1005900080119A4202DA00200146704740F233434C
:1005A0009A42A2F2334202DC524200F042B800F01A
:1005B00031B8000030B5041E71F1000404DB4FF0C7
:1005C0000044404264EB0101141E73F1000405DB9A
:1005D0001C464FF00043524263EB0403994208BFAC
:1005E000904230BD1CB5094800900948019005466D
:1005F000009C06E0E06840F0010394E8070098479B
:100600001034AC42F6D3FFF7C3FD0000304A0008B7
:10061000504A0008202A04DB203A00FA02F10020A8
:1006200070479140C2F1200320FA03F31943904030
:100630007047202A04DB203A21FA02F0002170479B
:1006400021FA02F3D040C2F120029140084319463A
:100650007047202A06DBCB17203A41FA02F043EA22
:10066000E07306E041FA02F3D040C2F1200291406B
:1006700008431946704710B5141E73F1000408DAD8
:10068000401C41F1000192185B411A4301D120F056
:10069000010010BD2DE9F04D92469B4611B1B1FA13
:1006A00081F202E0B0FA80F220329046FFF7B2FF0A
:1006B00004460F4640EA0A0041EA0B0153465A46F7
:1006C000084313D0114653EA010019D0C8F1400283
:1006D0005046FFF7AEFF05460E4650465946424685
:1006E000FFF798FF084305D0012004E02046394673
:1006F000BDE8F08D0020054346EAE0762C43374301
:100700000A986305E40AA0EB08000022FD0A44EA07
:1007100047540A3002D500200146E9E701051019C7
:100720006941DDE9084500196941BDE8F04DA2E7DE
:1007300080B586B0049003910292029890B9FFE7C9
:1007400069460020086044F2DE51C0F6000144F220
:100750005F62C0F600020120342302F025FF8DF80D
:10076000170034E00498A8B9FFE744F2CE50C0F671
:1007700000006946086044F2DE51C0F6000144F210
:100780005F62C0F600020620372302F00DFF8DF8ED
:1007900017001CE00398012815D8FFE744F22570E4
:1007A000C0F600006946086044F2DE51C0F6000160
:1007B00044F25F62C0F6000206203A2302F0F4FE23
:1007C0008DF8170003E000208DF81700FFE79DF873
:1007D000170006B080BD000083B00190019820B1E1
:1007E000FFE70198006818B9FFE7002002900CE0CD
:1007F000019800680090009840680199086000998D
:100800000020486000980290FFE7029803B070470C
:1008100080B584B002900191029818B1FFE7019869
:1008200090B9FFE769460020086044F23561C0F6E0
:10083000000144F25062C0F600020120192302F0C8
:10084000B3FE8DF80F000AE0029800680199486035
:1008500001980299086000208DF80F00FFE79DF8CD
:100860000F0004B080BD000080B58AB008900791E9
:100870000692089830B1FFE7079818B1FFE706988D
:1008800090B9FFE769460020086044F2DE51C0F6E7
:10089000000144F26962C0F6000201206E2302F0FA
:1008A00083FE8DF82700C3E007980C38069908608E
:1008B000069800680590089840300490049A0898BB
:1008C0004168806800FB01200390059804998842E4
:1008D00005D3FFE705980399884219D3FFE70899E4
:1008E000486A0130486244F20070C0F60000694670
:1008F000086044F2DE51C0F6000144F26962C0F6BD
:10090000000203207F2302F04FFE8DF827008FE0C6
:1009100005980499421A08988168B2FBF1F000FB2F
:100920001120C8B1FFE70899486A0130486244F2D3
:10093000D660C0F600006946086044F2DE51C0F699
:10094000000144F26962C0F600020320872302F02E
:100950002BFE8DF827006BE0069800680068C8B190
:10096000FFE7089988690130886144F29570C0F604
:1009700000006946086044F2DE51C0F6000144F20E
:100980006962C0F600020820932302F00DFE8DF884
:1009900027004DE00698006880684CF2DE01CDF635
:1009A000AD61884219D0FFE70899C8690130C86174
:1009B00044F25770C0F600006946086044F2DE5108
:1009C000C0F6000144F26962C0F6000209209E23CD
:1009D00002F0EAFD8DF827002AE0079808990968D7
:1009E00008440290029800684BF6BE21CCF6FE2126
:1009F000884219D0FFE70899086A0130086244F27A
:100A00003E70C0F600006946086044F2DE51C0F650
:100A1000000144F26962C0F600020920AA2302F034
:100A2000C3FD8DF8270003E000208DF82700FFE7C5
:100A30009DF827000AB080BD80B586B005900020E3
:100A400004900390FFE7039805994968884229D2EA
:100A5000FFE70598049908444030029005988168A2
:100A600004980844049002990120086002994CF20D
:100A7000DE00CDF6AD6088600298059909680844EB
:100A80000C30019001994BF6BE20CCF6FE20086098
:100A9000059828300299FFF7BBFEFFE70398013065
:100AA0000390D0E706B080BDFFE7FEE7B0B58CB09D
:100AB000ADF82A00ADF828100992ADF82230BDF843
:100AC0002A00002815DCFFE744F6B500C0F6000058
:100AD0006946086044F6DA01C0F6000144F6831264
:100AE000C0F600020620332302F06AFD00200B90BE
:100AF000B8E0BDF82800A8B9FFE744F6C900C0F681
:100B000000006946086044F6DA01C0F6000144F6C8
:100B10008312C0F600020620372302F051FD0020A8
:100B20000B909FE0BDF82800B0FA80F0C0F11F00E4
:100B30000790079901208840ADF82800BDF82810DB
:100B4000442000EB810003F029FB0690069898B939
:100B5000FFE7694600200490086044F6DA01C0F619
:100B6000000144F68312C0F600020220412302F085
:100B700027FD04980B9075E0BDF82210069800F14F
:100B800040021C2002F07CFC0698006CB8B9FFE71C
:100B9000069803F0DBFA002003900690694608608F
:100BA00044F6DA01C0F6000144F68312C0F60002F2
:100BB00002204A2302F004FD03980B9052E00798AC
:100BC00006990870099806994862069900200290D3
:100BD00048810699C880BDF82210069A9181BDF817
:100BE0002810069A9180BDF82A10069A116106997C
:100BF00088610699C8610699086206994880069A34
:100C000040F26C05C2F2000529686B68D5F808C08F
:100C1000D5F80CE02C696D69D5639463C2F834E0B3
:100C2000C2F830C0D3629162069908810699486182
:100C30000590FFE70598BDF8281088420BDAFFE71A
:100C40000698059900EB810100204864FFE70598AC
:100C500001300590EEE70698006C00F015FB069851
:100C60000B90FFE70B980CB0B0BD00007047000080
:100C700085B00490039100200290019000900290B2
:100C8000FFE702980F286CD8FFE7029901208840FF
:100C9000019003980068019908400090009801991C
:100CA000884259D1FFE702984100032000FA01F27F
:100CB00004990868904308600398007902994900F4
:100CC00000FA01F20499086810430860039800795B
:100CD000012805D0FFE703980079022827D1FFE714
:100CE00002984100032000FA01F2049988689043B9
:100CF0008860039840790299490000FA01F204994A
:100D0000886810438860BDF80810012000FA01F2DD
:100D1000049948689043486003988079BDF80810AA
:100D2000884082B20499486810434860FFE7BDF8E4
:100D300008004100032000FA01F20499C8689043BA
:100D4000C8600398C0790299490000FA01F2049939
:100D5000C8681043C860FFE7FFE7029801300290BF
:100D60008FE705B07047000084B00390ADF80A101B
:100D70008DF809200020019000909DF80900BDF831
:100D80000A1001F00701890088400190BDF80A307F
:100D900003F0070081000F2000FA01F203986FF0C2
:100DA000030101EA53010144086A90430862039871
:100DB000BDF80A1047F6FC7202EA51010844006AC5
:100DC00001990843009000980399BDF80A3002EA9F
:100DD00053021144086204B07047000080B582B02D
:100DE000019001980021CBF6FE710844800AADF80D
:100DF0000200BDF8021040F20C00C2F2000050F8F0
:100E00002100012100F062FC02B080BD82B00090A0
:100E1000009841F20001C4F20101884210D0FFE7BE
:100E2000009844F20041C4F20001884208D0FFE774
:100E3000009844F60001C4F20001884204D1FFE7A3
:100E400007208DF8070020E0009844F60041C4F226
:100E50000001884210D0FFE7009845F20001C4F27B
:100E60000001884208D0FFE7009841F20041C4F237
:100E70000101884204D1FFE708208DF8070004E053
:100E8000FFE707208DF80700FFE79DF8070002B095
:100E90007047000081B0ADF80200BDF8020090FA82
:100EA000A0F0B0FA80F0ADF80000BDF8000001B08D
:100EB0007047000082B00090009841F20001C4F237
:100EC0000101884204D1FFE725208DF807003FE0AB
:100ED000009844F20041C4F20001884204D1FFE7C7
:100EE00026208DF8070033E0009844F60001C4F294
:100EF0000001884204D1FFE727208DF8070027E092
:100F0000009844F60041C4F20001884204D1FFE792
:100F100034208DF807001BE0009845F20001C4F270
:100F20000001884204D1FFE735208DF807000FE06B
:100F3000009841F20041C4F20101884204D1FFE768
:100F400047208DF8070003E025208DF80700FFE714
:100F50009DF8070002B07047FFE7FEE781B0ADF8EB
:100F60000200ADF80010BDF80210BDF8000040EA24
:100F7000014001B070470000FFE7FEE781B000903C
:100F80000098033020F0030001B0704780B584B0B2
:100F90000290029818B9FFE70020039030E0FFE7C5
:100FA000FFE702982830FFF717FC0190019848B935
:100FB000FFE70299486901304861FFE7FFE7002039
:100FC00003901DE00199002008600299C868013073
:100FD000C8600298C1680069884204D9FFE7029896
:100FE0000069009003E00298C0680090FFE7009855
:100FF00002990861FFE7FFE701980C300390FFE7D3
:10100000039804B080BD000080B58CB00A900991AF
:10101000089200208DF81F00069005900A9890B95C
:10102000FFE769460020086044F2DE51C0F6000187
:1010300044F27562C0F600020120FB2302F0B4FA0C
:101040008DF82F004EE0002004900390FFE70398F6
:101050000A994968884237D2FFE70A9A03980499A7
:1010600000FB0120403002900A98816804980844EF
:101070000490029880684CF2DE01CDF6AD618842A2
:1010800007D0FFE709208DF81F0006980130069071
:10109000FFE702980A99096808440C30019001980A
:1010A00000684BF6BE21CCF6FE21884207D0FFE750
:1010B00009208DF81F00059801300590FFE7FFE734
:1010C000039801300390C2E70998069A059B44F201
:1010D000F951C0F6000102F0ABFB9DF81F008DF83E
:1010E0002F00FFE79DF82F000CB080BD80B584B0C5
:1010F0000290029820B1FFE70298006820B9FFE74C
:1011000000208DF80F0024E002980068C068B0B19C
:10111000FFE744F27370C0F600006946086044F2CD
:10112000DE51C0F6000144F2C362C0F600020320A3
:101130004FF4AA7302F038FA8DF80F0009E0029814
:10114000006803F003F80299002008608DF80F0092
:10115000FFE79DF80F0004B080BD000080B586B0A9
:1011600004900391049818B1FFE7039890B9FFE742
:1011700069460020086044F2DE51C0F6000144F2E6
:101180002562C0F600020120D12302F00DFA8DF88D
:1011900017002AE0002002900498039902AAFFF7A2
:1011A00063FB8DF807009DF8070028B1FFE79DF865
:1011B00007008DF8170018E0029901200860FFE78A
:1011C000FFE7049828300299FFF722FB0498C068D3
:1011D00028B1FFE70499C8680138C860FFE7FFE756
:1011E000FFE700208DF81700FFE79DF8170006B015
:1011F00080BD000083B00190ADF80210019818B9CD
:10120000FFE70020029008E0019ABDF80200916813
:1012100000FB01204C300290FFE7029803B07047BA
:1012200086B0049003910292049820B9FFE7012050
:101230008DF8170024E0049840300190019A049939
:101240004868896800FB0120009003980199884252
:1012500005D3FFE703980099884204D3FFE70620EF
:101260008DF817000CE003980199401A04998968D9
:10127000B0FBF1F00299088000208DF81700FFE71D
:101280009DF8170006B0704780B586B004900498AA
:1012900098B9FFE769460020086044F2DE51C0F6C5
:1012A000000144F29862C0F60002012040F25D1392
:1012B00002F07AF98DF8170020E000200390FFE794
:1012C000039804994968884214D2FFE7049A039866
:1012D000916800FB01204030029002980C30019090
:1012E000019804990968FEF772FFFFE7039801303F
:1012F0000390E5E700208DF81700FFE79DF8170041
:1013000006B080BD10B58CB00B900A9109920B9875
:1013100088B9FFE769460020086044F2DE51C0F654
:10132000000144F2AF62C0F60002012040F2271330
:1013300002F03AF9A6E00B98C16802694369D0F857
:1013400018C0D0F81CE0046A0794CDF818E0CDF876
:1013500014C0049303920291406A089000208DF813
:1013600007000A9B9DF807001844099944F2BB52F4
:10137000C0F6000202F042FA01469DF80700084458
:101380008DF807000A989DF80710084409990B9AF0
:10139000536844F28652C0F6000202F02FFA01466A
:1013A0009DF8070008448DF807000A989DF807107B
:1013B00008440999029B44F24D52C0F6000202F023
:1013C0001DFA01469DF8070008448DF807000A98A9
:1013D0009DF8071008440999039B44F29752C0F600
:1013E000000202F00BFA01469DF8070008448DF850
:1013F00007000A989DF8071008440999049B44F2D5
:101400007452C0F6000202F0F9F901469DF8070097
:1014100008448DF807000A989DF8071008440999B8
:10142000059B44F2A952C0F6000202F0E7F901461A
:101430009DF8070008448DF807000A989DF80710EA
:1014400008440999069B44F26252C0F6000202F079
:10145000D5F901469DF8070008448DF807000A9861
:101460009DF8071008440999079B44F23B52C0F6C7
:10147000000202F0C3F901469DF8070008448DF808
:101480000700FFE70CB010BD80B584B00390029157
:101490000192039808B9FFE72BE0029803990860CE
:1014A000019803994860039800681030FFF766FDC3
:1014B00003998860039900208862039940F2580ECE
:1014C000C2F2000EDEF80000DEF80420DEF808307C
:1014D000DEF80CC0DEF810E0C1F83CE0C1F838C01E
:1014E0004B630A63C862039901F10C0002F074F8BF
:1014F000FFE704B080BD00007047000080B582B0F7
:101500008DF807008DF806108DF805209DF807006E
:101510008DF8010001208DF804009DF806008DF87B
:1015200002009DF805008DF803000DF1010000F0A8
:1015300003F802B080BD000082B0019000208DF859
:1015400003008DF802000F208DF801000198C0788B
:10155000002845D0FFE74EF60C50CEF200000068A0
:10156000C043C0F302208DF803009DF80300C0F1D2
:1015700004008DF802009DF801009DF80310C8409A
:101580008DF80100019840789DF8021088408DF890
:101590000300019880789DF8011001409DF8030038
:1015A00008438DF803009DF8030000018DF8030047
:1015B0009DF80300019909784EF20042CEF2000234
:1015C00088540198027802F01F01012088401C21F4
:1015D00001EAD2014EF20012CEF2000288500EE073
:1015E0000198027802F01F01012088401C2101EAC5
:1015F000D2014EF28012CEF200028850FFE702B014
:101600007047000082B08DF8070000919DF9070037
:10161000B0F1FF3F0CDCFFE7009800019DF80710D8
:1016200001F00F014EF61452CEF20002885409E088
:10163000009800019DF907104EF20042CEF2000220
:101640008854FFE702B0704783B00290029800F020
:10165000070000904EF60C51CEF200010868019090
:1016600001984FF6FF02104001900198009A40EA5D
:1016700002200022C0F2FA52104301900198086043
:1016800003B0704780B586B0059004910392BDF811
:101690001200ADF80A000498039908800598BDF877
:1016A0000A10FFF7A7FD0190019806B080BD000069
:1016B0007047000080B500F0A9FB014644F2A94044
:1016C000C0F6000002F08AF880BD000082B00190F0
:1016D0008DF803109DF8030048B1FFE7019A43F627
:1016E0003001C4F2020108681043086008E0019A62
:1016F00043F63001C4F20201086890430860FFE736
:1017000002B0704782B001908DF803109DF803007D
:1017100048B1FFE7019A43F64001C4F202010868AC
:101720001043086008E0019A43F64001C4F2020148
:10173000086890430860FFE702B0704782B00190EC
:101740008DF803109DF8030048B1FFE7019A43F6B6
:101750004401C4F2020108681043086008E0019ADD
:1017600043F64401C4F20201086890430860FFE7B1
:1017700002B0704788B0079000210691059104914E
:10178000022003900291019043F60800C4F2020087
:10179000006800F00C0006900698009040B1FFE74A
:1017A000009804280BD0FFE7009808280ED050E0DE
:1017B000079942F20040C0F2F400086050E0079937
:1017C00041F20020C0F27A00086049E043F60400CC
:1017D000C4F202000168C1F380510291006800F078
:1017E0003F000190029888B1FFE7019941F2002083
:1017F000C0F27A00B0FBF1F043F60401C4F202013A
:101800000968C1F388114843049010E0019942F23D
:101810000040C0F2F400B0FBF1F043F60401C4F262
:1018200002010968C1F3881148430490FFE743F6B9
:101830000400C4F20200006800F44031022000EB12
:10184000D130039004980399B0FBF1F00799086038
:1018500006E0079942F20040C0F2F4000860FFE79A
:1018600043F60801C4F20201086800F0F000069097
:10187000069800090690069A44F20820C0F6000077
:10188000825C0592079B1A68DDF814C022FA0CF2FC
:101890005A600A6802F4E0520692069A920A069288
:1018A000069A825C0592079B5A68DDF814C022FAFA
:1018B0000CF29A60096801F4604106910699490B9F
:1018C00006910699405C059007994868059AD040B2
:1018D000C86008B0704700007047000083B0002067
:1018E0000290019043F60001C4F20201086840F43E
:1018F00080300860FFE743F60000C4F20200006891
:1019000000F400300190029801300290FFE7019945
:101910000020009039B9FFE70298B0F5A04018BF49
:1019200001200090FFE70098C0070028E3D1FFE7FF
:1019300043F60000C4F2020000688003002803D5CB
:10194000FFE70120019002E000200190FFE70198ED
:1019500001285AD1FFE743F64001C4F202010868AA
:1019600040F08050086047F20001C4F200010868AE
:1019700040F44040086043F60801C4F202010868E0
:101980000860086840F400400860086840F4A0500F
:10199000086043F60401C4F2020145F20840C0F2B7
:1019A0004070086043F60001C4F20201086840F08C
:1019B00080700860FFE743F60000C4F20200006890
:1019C0008001002801D4FFE7F5E743F60041C4F2A7
:1019D000020140F20570086043F60801C4F20201FA
:1019E000086820F003000860086840F00200086002
:1019F000FFE743F60800C4F20200006800F00C00A4
:101A0000082801D0FFE7F4E700E0FFE703B07047E4
:101A100080B582B0009000980138B0F1807F03D388
:101A2000FFE70120019019E0009801384EF21401FF
:101A3000CEF2000108604FF0FF300F21FFF7E2FD0A
:101A40004EF21801CEF20001002008604EF21002A2
:101A5000CEF20002072111600190FFE7019802B069
:101A600080BD000040F29011C2F200010868013010
:101A70000860704780B540F23800C2F2000000688C
:101A800044F6D351C1F26201A0FB01108009FFF7B7
:101A9000BFFF38B1FFE740F28401C2F2000100202D
:101AA0000870FFE780BD000080B54EF68851CEF289
:101AB0000001086840F47000086043F60002C4F2B8
:101AC0000202106840F00100106043F60801C4F201
:101AD00002010020086011684FF6FF73CFF6F6632D
:101AE0001940116043F60403C4F2020343F21001EB
:101AF000C2F200411960116821F48021116043F69F
:101B00000C01C4F202010860FFF7E8FE4EF608512E
:101B1000CEF200014FF00060086080BD80B541F258
:101B20000000C4F20000012100F06CF801280ED181
:101B3000FFE740F29C11C2F200010220087041F25E
:101B40000000C4F20000012100F03AF8FFE780BD78
:101B500080B584B0039041F20000C4F2000001900F
:101B60000021009100F038F800990198039B4FF094
:101B7000FF3202EB430241F22C03C4F200031A606D
:101B800041F22402C4F2000211600121029100F02E
:101B90000BF80198029A114600F062F80198029938
:101BA00000F01AF804B080BD82B00190ADF80210C8
:101BB000BDF80200C0430199088202B070470000DE
:101BC00082B00190ADF80210BDF80200C043019947
:101BD000088202B07047000082B001908DF80310B7
:101BE0009DF8030030B1FFE70199088840F001003B
:101BF000088005E00199088820F001000880FFE7CF
:101C000002B0704783B00290ADF8061000208DF846
:101C10000500ADF80200ADF800000298008ABDF89A
:101C200006100840ADF8020002988089BDF8061041
:101C30000840ADF80000BDF8020040B1FFE7BDF874
:101C4000000020B1FFE701208DF8050003E000202F
:101C50008DF80500FFE79DF8050003B07047000010
:101C600082B00190ADF802108DF801209DF80100BE
:101C700038B1FFE7BDF802200199888910438881B7
:101C800006E0BDF802200199888990438881FFE72A
:101C900002B0704783B0029001910020ADF80200BD
:101CA00002980088ADF8020002980021C4F20101F8
:101CB000884225D0FFE7029840F20041C4F20101BA
:101CC00088421DD0FFE70298B0F1804F18D0FFE79F
:101CD000029840F20041C4F20001884210D0FFE7B0
:101CE000029840F60001C4F20001884208D0FFE7E4
:101CF000029840F60041C4F2000188420ED1FFE78D
:101D0000BDF8020020F07000ADF802000198418893
:101D1000BDF802000843ADF80200FFE7029841F267
:101D20000001C4F20001884216D0FFE7029841F298
:101D30000041C4F2000188420ED0FFE7BDF8020066
:101D400020F44070ADF8020001980189BDF802004E
:101D50000843ADF80200FFE7BDF8020002990880D1
:101D6000019840680299C862019800880299088524
:101D700002980021C4F20101884208D0FFE70298CE
:101D800040F20041C4F20101884205D1FFE7019809
:101D9000807A02990886FFE702990120888203B0C1
:101DA0007047000081B0009000994FF0FF3048600C
:101DB00000990020088000990881009948800099C6
:101DC000887201B07047000080B582B00190019820
:101DD0000090FFF76FFC009868B1FFE7009800687B
:101DE00048B1FFE70098016844F2B630C0F6000041
:101DF00001F0F4FC06E044F2A330C0F6000001F06C
:101E0000EDFCFFE7002002B080BD000080B501F0CE
:101E1000AFFB40F28C11C2F200010968401A80BD8C
:101E200080B588B0684604218160082141600023A4
:101E3000C4F20203036003A84FF4E13144F200420C
:101E4000C4F2000201F01AFC0399049A059BDDF824
:101E500018C0DDF81CE040F28800C2F20000C0F8B3
:101E600010E0C0F80CC083604260016001F038FCF3
:101E700008B080BD80B582B0019040F29C10C2F2E3
:101E800000000078022809D0FFE740F29C10C2F25F
:101E900000000078002840F09D80FFE740F29C1091
:101EA000C2F20000007818B9FFE700F0FDFE12E072
:101EB00040F29C10C2F20000007802280AD1FFE72D
:101EC00040F29810C2F20000026801994869801A35
:101ED0004861FFE7FFE701984069B0B9FFE7019962
:101EE0000869486140F29C10C2F20000007858B1C5
:101EF000FFE70199C8880130C8800199C8888A889D
:101F0000013A1040C880FFE7FFE70198406942F2BC
:101F10001071884208D3FFE740F29811C2F2000125
:101F200042F21070086030E001984069B0F57A7FA5
:101F300008D3FFE740F29811C2F200014FF47A7023
:101F4000086021E001984069642807D3FFE740F268
:101F50009811C2F200016420086014E00198406901
:101F60000A2807D3FFE740F29811C2F200010A20C5
:101F7000086007E00198406940F29811C2F2000140
:101F80000860FFE7FFE7FFE7FFE740F29C10C2F2BF
:101F90000000007840B9FFE740F29810C2F200005C
:101FA0000068FFF7D5FD0EE041F20000C4F200002A
:101FB0000021FFF711FE40F29810C2F20000006805
:101FC000FFF7C6FDFFE740F29C11C2F200010120BD
:101FD0000870FFE702B080BD80B584B00290019127
:101FE000029838B1FFE70298006818B1FFE701983E
:101FF000A8B9FFE744F61B20C0F600006946086058
:1020000044F60C11C0F6000144F67512C0F6000249
:1020100006202A2301F0D4FA8DF80F002EE0019853
:102020000299096888420ED1FFE701980069029978
:1020300008600298006828B1FFE702980168002054
:102040004861FFE712E00198406928B1FFE7019974
:10205000086949690861FFE70198006928B1FFE74D
:102060000198016940694861FFE7FFE70199002095
:102070000861019948618DF80F00FFE79DF80F0096
:1020800004B080BD80B584B002900191029818B16F
:10209000FFE70198A8B9FFE744F61B20C0F600004F
:1020A0006946086044F60C11C0F6000144F6271298
:1020B000C0F6000206201E2301F082FA8DF80F0000
:1020C00016E00298006801990861019900204861B2
:1020D0000298006828B1FFE70198029909684861F1
:1020E000FFE701980299086000208DF80F00FFE7D4
:1020F0009DF80F0004B080BD80B588B006900591B2
:102100000698FEF743FF0490049898B9FFE76946E4
:1021100000200290086044F6DA01C0F6000144F69F
:10212000F602C0F600020220222301F049FA0298CA
:10213000079026E006980499059AFFF771F88DF844
:102140000F009DF80F00C8B1FFE706980499FFF74C
:1021500005F80021019104919DF80F006A46116075
:1021600044F6DA01C0F6000144F6F602C0F60002B9
:10217000292301F025FA0198079002E004980790BE
:10218000FFE7079808B080BD80B582B040F2941098
:10219000C2F200000190006800F09AFB019800680C
:1021A00008B9FFE741E040F28810C2F20000007871
:1021B00010BBFFE7FFF72AFE41F6583188421BD3D8
:1021C000FFE740F28811C2F2000101200870FFF71A
:1021D00071FA44F28D30C0F6000001F0FFFA40F2CF
:1021E0009410C2F20000006840F25401C2F20001F3
:1021F000096800F087FAFFE7FFF708FE42F6E061A2
:10220000884212D3FFE744F21820C0F6000001F024
:10221000E5FA40F29410C2F200000090006800F06D
:102220000BFC009800F0FAFAFFE702B080BD000056
:1022300080B586B040F28811C2F20001002008701B
:1022400040F25401C2F200014FF0FF3008604FF439
:10225000FA70082101221023FEF728FC014640F203
:102260009410C2F200000160006838B9FFE744F240
:102270007520C0F6000001F0B1FA44E14FF0FF30E4
:102280000590049044F24720C0F6000001F0A6FA41
:1022900044F2BF30C0F6000001F0A0FA00238DF830
:1022A0000F3040F29410C2F200000068694605AA9F
:1022B0004A600B6041F6C951C0F6000140F2480285
:1022C000C2F2000200F0F4FB8DF80F009DF80F0041
:1022D00050B1FFE744F29020C0F6000001F07EFA12
:1022E00000208DF80F00FFE7059944F2F530C0F6A5
:1022F000000001F073FA40F29410C2F2000000688E
:102300006A4605A951600121116041F6C951C0F624
:10231000000140F24C02C2F200024FF47A7300F066
:10232000C7FB8DF80F009DF80F0050B1FFE744F296
:10233000E720C0F6000001F051FA00208DF80F00F0
:10234000FFE7059944F22E40C0F6000001F046FA7E
:1023500040F29410C2F2000000686A4605A951607C
:102360000321116041F6C951C0F6000140F250024C
:10237000C2F2000240F2DC5300F09AFB8DF80F002D
:102380009DF80F0050B1FFE744F24830C0F600005E
:1023900001F024FA00208DF80F00FFE7059944F2C0
:1023A0008C40C0F6000001F019FA40F29410C2F21D
:1023B000000000686A4605A951600121116041F6DC
:1023C000C951C0F6000140F24002C2F2000241F2DF
:1023D000883300F06DFB8DF80F009DF80F0050B1B1
:1023E000FFE744F22530C0F6000001F0F7F90020C5
:1023F0008DF80F00FFE7059944F26A40C0F600002F
:1024000001F0ECF940F29410C2F2000000686A4654
:1024100004A951600121116041F6C951C0F60001C3
:1024200040F23C02C2F2000240F6B83300F040FB3A
:102430008DF80F009DF80F0050B1FFE744F2CB205C
:10244000C0F6000001F0CAF900208DF80F00FFE788
:10245000049944F21340C0F6000001F0BFF940F2C5
:102460009410C2F200000068049900F04BF98DF856
:102470000F009DF80F0050B1FFE744F2AF20C0F607
:10248000000001F0ABF900208DF80F00FFE744F2E7
:102490006630C0F6000001F0A1F940F29410C2F2DB
:1024A0000000006840F25401C2F200016A46516027
:1024B0004FF6FF71116041F6C951C0F6000140F2BC
:1024C0004402C2F200024FF4FA6300F0F1FA8DF810
:1024D0000F009DF80F0050B1FFE744F20630C0F640
:1024E000000001F07BF900208DF80F00FFE740F2BB
:1024F0005400C2F20000016844F24C40C0F60000F3
:1025000001F06CF9FFE706B080BD000080B588B02F
:102510000690059104920393069830B1FFE7059861
:1025200018B1FFE7049898B9FFE7694600200860F2
:1025300044F6DA01C0F6000144F66612C0F6000265
:1025400001204FF48C7301F03BF88DF81F002DE053
:102550000598006898B9FFE769460020086044F6CE
:10256000DA01C0F6000144F66612C0F6000204204B
:1025700040F21B1301F024F88DF81F0016E0002034
:102580008DF80B0005980499FFF726FD039840B9D4
:10259000FFE70698006C0499FEF7E0FD8DF80B004C
:1025A000FFE79DF80B008DF81F00FFE79DF81F0067
:1025B00008B080BD80B588B006900591ADF81220B6
:1025C000069818B1FFE7059898B9FFE7694600201B
:1025D000086044F6DA01C0F6000144F6B612C0F60F
:1025E0000002012040F2351300F0EAFF8DF81F00D1
:1025F0003FE0069840880599096908440138B0FB16
:10260000F1F00390039818B9FFE701200390FFE76A
:102610000599C888039A1044898801390840ADF8A3
:102620000A000398013805990978C840069948605E
:10263000BDF80A00BDF81210884216D0FFE70598D1
:10264000BDF8121000EB81014431069A0123FFF717
:102650005DFF0598BDF80A1000EB81004430069933
:10266000FFF710FD8DF81F0003E000208DF81F001C
:10267000FFE79DF81F0008B080BD000080B584B062
:1026800002900191029818B1FFE7019898B9FFE70D
:1026900069460020086044F6DA01C0F6000144F6FD
:1026A0009612C0F6000201204FF4937300F088FFE9
:1026B0008DF80F0022E00298806830B9FFE7029998
:1026C000002008808DF80F0018E002988168C0682B
:1026D0008847029800884FF6FF7188420AD0FFE7CA
:1026E00002980088012805DBFFE702990888013875
:1026F0000880FFE700208DF80F00FFE79DF80F002E
:1027000004B080BD80B586B004900391049890B960
:10271000FFE769460020086044F6DA01C0F60001D0
:1027200044F63612C0F600020120B02300F048FF44
:102730008DF817006EE004984088A8B1FFE744F6D2
:10274000EF10C0F600006946086044F6DA01C0F6F2
:10275000000144F63612C0F600020320B32300F055
:102760002FFF8DF8170055E00398013020B9FFE7DF
:1027700000208DF817004DE00498006C03990DF1CE
:102780000A02FEF77FFF01900198A8B9FFE744F61F
:10279000DD10C0F600006946086044F6DA01C0F6B4
:1027A000000144F63612C0F600020620BD2300F0F8
:1027B00007FF8DF817002DE00198408BBDF80A1037
:1027C000884204D1FFE701980088A8B9FFE744F6E2
:1027D000DD10C0F600006946086044F6DA01C0F674
:1027E000000144F63612C0F600020620C12300F0B4
:1027F000E7FE8DF817000DE0019900200880049A8B
:10280000116A01311162049A5189013951818DF89F
:102810001700FFE79DF8170006B080BD80B584B0B3
:102820000390039820B1FFE70398006808B9FFE719
:102830004BE000200290FFE702980399096889881D
:10284000884235DAFFE7FFE703980068029900EB5A
:102850008100406C38B3FFE703980068029900EBF1
:102860008100406C01900198006903990968029AFF
:1028700001EB8201486403980068029900EB810033
:10288000406C48B1FFE703980068029900EB8100B3
:10289000416C00204861FFE703980068006C0199D3
:1028A000FEF75CFCD0E7FFE7029801300290C3E737
:1028B000039800684030FEF719FC0398006801F0A7
:1028C00045FC039900200860FFE704B080BD0000CC
:1028D00080B588B00690069890B9FFE76946002059
:1028E000086044F6DA01C0F6000144F6A512C0F60D
:1028F00000020120CB2300F063FE8DF81F0097E05B
:1029000006984088A8B1FFE744F6EF10C0F6000033
:102910006946086044F6DA01C0F6000144F6A512E3
:10292000C0F600020320CE2300F04AFE8DF81F00FF
:102930007EE00698406A012804D1FFE70698FFF779
:1029400099FAFFE70699C8880989884204D1FFE708
:1029500000208DF81F006BE000208DF8170006990D
:10296000C88808810698C088ADF814000698BDF89C
:10297000141000EB8100406C0490FFE704980028DD
:1029800051D0FFE7049803900498006904900398DD
:10299000008888B9FFE70698BDF8141000EB8101A4
:1029A0004431039A00230293FFF7B0FD01460298D9
:1029B0008DF817100390E1E70398406868BBFFE7C4
:1029C00003980699FFF75AFE8DF8170003980088C0
:1029D00048B1FFE703980699BDF81420FFF7EAFD18
:1029E0008DF8170018E00698BDF8141000EB81016F
:1029F0004431039A00230193FFF788FD01460198B3
:102A00008DF8171003900699488901384881069976
:102A1000886901308861FFE704E00399486801385C
:102A20004860FFE7AAE79DF817008DF81F00FFE751
:102A30009DF81F0008B080BD80B582B0019001985C
:102A40000169828844F68700C0F6000000F0C6FEE7
:102A500044F67200C0F6000000F0C0FE0198418903
:102A600044F64100C0F6000000F0B8FE019881690C
:102A700044F2E170C0F6000000F0B0FE0198C169B8
:102A800044F61100C0F6000000F0A8FE0198016AAB
:102A900044F2B170C0F6000000F0A0FE02B080BDAC
:102AA00081B0009000990120488001B0704700007B
:102AB00080B58EB0DDF844C0DDF840C00C900B91BD
:102AC0000A9209930C9890B9FFE7694600200860C4
:102AD00044F6DA01C0F6000144F64E12C0F60002D8
:102AE0000120752300F06CFD8DF83700D8E00C98BC
:102AF0004088A8B1FFE744F6EF10C0F60000694631
:102B0000086044F6DA01C0F6000144F64E12C0F641
:102B100000020320782300F053FD8DF83700BFE05A
:102B20000B98A8B9FFE744F60220C0F600006946FA
:102B3000086044F6DA01C0F6000144F64E12C0F611
:102B4000000206207B2300F03BFD8DF83700A7E054
:102B5000119828B1FFE711994FF0FF300860FFE7A7
:102B6000109898B9FFE70C998869013088610C9931
:102B7000C8690130C8610B9820B1FFE70B990A982A
:102B80008847FFE700208DF8370089E009980C9905
:102B9000096908440138B0FBF1F00890089818B9A9
:102BA000FFE701200890FFE70C99C888089A1044B5
:102BB000898801390840ADF81E00089801380C9941
:102BC0000978C84006900020ADF816000C98006CFB
:102BD0000DF11601FFF790FA0490049800284AD0EE
:102BE000FFE70A980499C8600B98049988601098C8
:102BF00004990880069804994860BDF81600049965
:102C000008830998049948800C98BDF81E1000EBC1
:102C1000810044300499FFF735FA8DF80F009DF8D4
:102C20000F0050B1FFE70C98006C0499FEF796FA7C
:102C30009DF80F008DF8370032E00499488B013081
:102C40004883BDF816000499498BFEF787F9029076
:102C5000119820B1FFE7029811990860FFE70C99DD
:102C6000C8690130C8610C99488901304881002049
:102C70008DF8370014E044F6CA10C0F6000069462B
:102C8000086044F6DA01C0F6000144F64E12C0F6C0
:102C900000020220AC2300F093FC8DF83700FFE720
:102CA0009DF837000EB080BD80B588B0102001219E
:102CB0000391FEF727FD05A80190FFF773F801992E
:102CC00003984AF20F42ADF8142000220292ADF8A8
:102CD0001C20ADF81620069041F20000C4F200005E
:102CE000FEF7D8FF0299039836228DF810200F22A4
:102CF0008DF811208DF812108DF813004FF44070EC
:102D0000FEF7A2FC04A8FEF717FC08B080BD000087
:102D100080B582B044F60040C4F20000082100F003
:102D200023FA78B1FFE744F60040C4F200000088BF
:102D3000ADF8060044F60440C4F200000088ADF887
:102D40000600FFE744F60040C4F2000040F22551BF
:102D500000F02CFA012826D1FFE744F60040C4F227
:102D6000000000F077FB8DF8050040F2A010C2F2E1
:102D70000000C06870B1FFE740F2A010C2F200008E
:102D8000C2689DF8050040F26811C2F20001C968EE
:102D90009047FFE744F60040C4F2000040F225519E
:102DA00000F0AAF9FFE702B080BD000080B582B054
:102DB00045F20000C4F20000082100F0D5F978B116
:102DC000FFE745F20000C4F200000088ADF80600FD
:102DD00045F20400C4F200000088ADF80600FFE7E9
:102DE00045F20000C4F2000040F2255100F0DEF987
:102DF000012826D1FFE745F20000C4F2000000F0F0
:102E000029FB8DF8050040F2A010C2F20000006915
:102E100070B1FFE740F2A010C2F2000002699DF815
:102E2000050040F26811C2F2000109699047FFE70E
:102E300045F20000C4F2000040F2255100F05CF9B8
:102E4000FFE702B080BD000080B582B041F2000013
:102E5000C4F2010040F2255100F0A8F900285ED02C
:102E6000FFE741F20000C4F2010000F0F3FA8DF830
:102E7000070040F26410C2F200004078000600280B
:102E80004CD4FFE740F26410C2F200000088400416
:102E9000002816D5FFE79DF807000A2807D0FFE7AE
:102EA00040F26411C2F200010020088008E040F204
:102EB0006411C2F20001088840F400400880FFE776
:102EC0002BE09DF807000D2809D1FFE740F26411BF
:102ED000C2F20001088840F4804008801CE09DF8A0
:102EE000071040F26410C2F2000003886FF39F33B2
:102EF00040F29C02C2F20002D154018801310180EB
:102F00000088C82807DBFFE740F26411C2F2000125
:102F100000200880FFE7FFE7FFE7FFE7FFE702B0D9
:102F200080BD000080B582B044F20040C4F20000D1
:102F3000082100F019F978B1FFE744F20040C4F22B
:102F400000000088ADF8060044F20440C4F200001E
:102F50000088ADF80600FFE744F20040C4F200002C
:102F600040F2255100F022F9012826D1FFE744F272
:102F70000040C4F2000000F06DFA8DF8050040F248
:102F8000A010C2F20000406870B1FFE740F2A0104C
:102F9000C2F2000042689DF8050040F26811C2F2DA
:102FA000000149689047FFE744F20040C4F2000086
:102FB00040F2255100F0A0F8FFE702B080BD00000C
:102FC00080B582B044F60000C4F20000082100F091
:102FD000CBF878B1FFE744F60000C4F200000088A7
:102FE000ADF8060044F60400C4F200000088ADF815
:102FF0000600FFE744F60000C4F2000040F225514D
:1030000000F0D4F8012826D1FFE744F60000C4F20E
:10301000000000F01FFA8DF8050040F2A010C2F287
:103020000000806870B1FFE740F2A010C2F200001B
:1030300082689DF8050040F26811C2F200018968BB
:103040009047FFE744F60000C4F2000040F225512B
:1030500000F052F8FFE702B080BD000080B582B0FA
:1030600041F20040C4F20100082100F07DF878B17F
:10307000FFE741F20040C4F201000088ADF806000D
:1030800041F20440C4F201000088ADF80600FFE7F9
:1030900041F20040C4F2010040F2255100F086F8F0
:1030A000012826D1FFE741F20040C4F2010000F000
:1030B000D1F98DF8050040F2A010C2F2000040697D
:1030C00070B1FFE740F2A010C2F2000042699DF823
:1030D000050040F26811C2F2000149699047FFE71C
:1030E00041F20040C4F2010040F2255100F004F822
:1030F000FFE702B080BD000083B00290ADF806107B
:103100000020ADF80400ADF80200BDF8060040F65E
:103110006A11884201D1FFE7FFE79DF80700ADF88B
:103120000400BDF8041001208840ADF80200BDF88D
:103130000200C0430299088003B0704782B001903A
:103140008DF803109DF8030030B1FFE701998889DD
:1031500040F40050888105E00199888920F40050EE
:103160008881FFE702B0704782B00190ADF802108D
:1031700000208DF80100BDF80200B0F5007F01D1FC
:10318000FFE7FFE701980088BDF80210084000043F
:1031900020B1FFE701208DF8010003E000208DF849
:1031A0000100FFE79DF8010002B0704786B005906E
:1031B000ADF8121000200390029001908DF80300EA
:1031C000BDF8120040F66A11884201D1FFE7FFE71F
:1031D0009DF8120040090190BDF8120000F01F0098
:1031E000029002990120884002900198012806D19E
:1031F000FFE70598818902980840029010E0019845
:10320000022806D1FFE70598018A0298084002903B
:1032100005E00598818A029808400290FFE7FFE7E1
:103220009DF81300039003990120884003900598AE
:103230000188039808400390029838B1FFE703988B
:1032400020B1FFE701208DF8030003E000208DF896
:103250000300FFE79DF8030006B0704786B00590B5
:10326000ADF812108DF8112000200390029001900B
:103270000090BDF8120040F66A11884201D1FFE7C4
:10328000FFE7059800909DF8120040090390BDF8F3
:10329000120000F01F000290029901208840019066
:1032A0000398012804D1FFE700980C3000900CE04F
:1032B0000398022804D1FFE700981030009003E043
:1032C000009814300090FFE7FFE79DF8110030B13F
:1032D000FFE7019A009908681043086005E0019A29
:1032E0000099086890430860FFE706B07047000047
:1032F00080B58AB00990089100200790069005904B
:1033000004900898808908B1FFE7FFE70998008AD0
:103310000790079820F4405007900898C1880798B4
:1033200008430790079809990882099880890790AF
:10333000079841F20C6188430790089988880A89A8
:103340001043498901430798084307900798099952
:1033500088810998808A0790079820F44070079028
:1033600008988189079808430790079809998882E7
:103370006846FEF7FFF9099841F20001C4F2010125
:10338000884208D0FFE7099841F20041C4F20101E8
:10339000884203D1FFE70398069002E00298069066
:1033A000FFE709988089000400280AD5FFE70698FE
:1033B00019214843089909684900B0FBF1F00590CC
:1033C00009E0069819214843089909688900B0FB6B
:1033D000F1F00590FFE7059848F21F51C5F2EB1197
:1033E000A0FB01016FF00F0000EA51000790059A61
:1033F00007980009642100FB112004900998808936
:103400000004002810D5FFE70499322000EBC1002A
:1034100048F21F51C5F2EB11A0FB0110C0F342119D
:103420000798084307900FE00499322000EB011041
:1034300048F21F51C5F2EB11A0FB0110C0F343117C
:10344000079808430790FFE70798099908810AB091
:1034500080BD000081B00090009880886FF35F20ED
:1034600001B0704782B00190ADF80210BDF80200C3
:103470006FF35F200199888002B07047FFE7FEE795
:1034800080B588B006900591049206980599049A33
:10349000FDF74EF990B1FFE769460020086044F25D
:1034A000DE51C0F6000144F28662C0F6000206203A
:1034B000592300F079F88DF81F0038E00698103095
:1034C000FDF75CFD03900398059948434030029056
:1034D000029800F063FE0499086004980068C0B97F
:1034E000FFE70498006800F031FE049900200860AE
:1034F0006946086044F2DE51C0F6000144F286627B
:10350000C0F600020220642300F04EF88DF81F0080
:103510000DE0049800680699059AFDF7B5FF049838
:103520000068FDF789FA00208DF81F00FFE79DF87D
:103530001F0008B080BD000080B582B001900091EE
:10354000FFE740F28800C2F2000000698021FFF727
:103550000BFE08B9FFE7F4E740F28800C2F2000072
:1035600000699DF80410FFF77DFF019802B080BD4F
:1035700040F29010C2F200000068704780B582B03F
:1035800000200190FEF776FAFEF74AFCFEF750FEA7
:10359000FFF7EEFF40F28C11C2F200010860FFE776
:1035A000FEF7F2FDFCE7000084B0DDF810C08DF8F6
:1035B0000F000291019200939DF80F0004B0704734
:1035C00084B0DDF810C08DF80F00029101920093D5
:1035D0009DF80F0004B0704782B0019000910199EE
:1035E0000020086001994860019988600199C860CD
:1035F00001990861019948610199886102B0704799
:1036000080B582B00190019841F20001C4F201013D
:10361000884205D1FFE710200121FEF78FF82BE04B
:10362000019841F20041C4F20101884205D1FFE74F
:1036300020200121FEF782F81DE0019844F20041AC
:10364000C4F20001884206D1FFE74FF400300121A7
:10365000FEF758F80EE0019844F60001C4F20001AC
:10366000884206D1FFE74FF480200121FEF74AF897
:10367000FFE7FFE7FFE7FFE702B080BD80B585B059
:103680008C46009009980899DDF81CE0CDF810C030
:1036900003920293ADF80610ADF804000498B0F15F
:1036A000FF3F04DCFFE7049840420490FFE70099E5
:1036B0000298086007984860BDF806000881BDF8C8
:1036C00004004881049AC86862F31E00C860C86894
:1036D00020F00040C8600398086105B080BD00007C
:1036E00080B58EB00D900D980068FDF777FB0D98B2
:1036F0004068FDF773FB0D980069FFF781FF0D9897
:10370000016801910089FDF7C5FB00900D980069E3
:10371000FDF77CFB009902460198FDF725FB0D980B
:10372000416803914089FDF7B5FB02900D9800694F
:10373000FDF76CFB029902460398FDF715FB02208A
:103740008DF83000002105918DF832100D9909890E
:103750000B91012106918DF833108DF831000D98F1
:1037600000680BA90491FDF783FA04990D9840892C
:103770000B900D984068FDF77BFA05980D99C96884
:1037800021F000410791ADF828000C21ADF826107A
:10379000ADF82400ADF82200ADF820000D980069C6
:1037A00007A9FFF7A5FD06990D980069FFF7C6FC6C
:1037B0000D980069FDF77EFB069A1146FDF79EFE07
:1037C000069A0D98006940F22551FFF747FD0D99C3
:1037D000C86840F00040C8600EB080BD0FB4054B13
:1037E00010B503A9044A029800F008F910BC5DF86E
:1037F00014FB000039350008000000200FB47CB530
:103800000C0009AD01D0611E00E00021CDE90001EE
:10381000064B6A462946089800F0F0F8002C02D0C2
:10382000009A002111707CBC5DF814FB2B4100084C
:103830000FB4084B10B504A902AA039800F0DEF8F3
:10384000044602A9002000F07BFC204610BC5DF875
:1038500014FB00004141000802E008C8121F08C123
:10386000002AFAD170477047002001E001C1121F01
:10387000002AFBD1704700002DE9FF5F82B00021D4
:10388000DDE90430020DDDF840B0034318D044F602
:103890001050A2F2FF3242431514119801281FD094
:1038A000A5EB0B00401C5FEA000A4FF000064E4FEC
:1038B000DFF83891B046504615D5CAF1000413E040
:1038C000119801244AA3012801D16FEA0B01029843
:1038D000119AC0E90031C0E9024206B0BDE8F09F8C
:1038E000CBF10000DFE704460021404A491842EBD3
:1038F0000450CDE9001012E0E00707D032463B4605
:1039000040464946FCF75CFD8046894632463B46C8
:1039100010461946FCF754FD06460F466410002C6D
:10392000EAD1DDE90401DDE90023BAF1000F06DA8E
:10393000FCF746FD42464B46FCF742FD05E0FCF72E
:10394000B1FD42464B46FCF7ADFD04460E46002253
:10395000284BFCF72FFE03D84FF0FF30014607E05D
:103960000022254B20463146FCF783FCFCF709FE7C
:10397000102409E0002C0ADB0A220023FCF748FC93
:10398000039B30321A55641E50EA0102F2D1641CC6
:10399000039AC4F111031444119A012A03D001229D
:1039A00008430DD10AE0084304D000204FF0110B6A
:1039B000119072E7A3EB0B056D1E0DE05B4504DD76
:1039C0004FF0000205F1010504E003DA4FF00002B8
:1039D000A5F10105002AECD002981199C0E9023145
:1039E000C0E9004579E70000000014400000F03F06
:1039F000300000000000F0430000E03F2DE9FF4FE1
:103A000095B09B468946064600250FE2252877D1CA
:103A100000242746F84A0121059400E0044316F8E3
:103A2000013F203B01FA03F01042F7D130782A28F9
:103A300011D06FF02F033078A0F13002092A16D888
:103A4000059A44F0020402EB820203EB42021044A6
:103A5000761C0590EFE759F8042B0592002A03DA4B
:103A6000504244F40054059044F00204761C30782F
:103A70002E2816D116F8010F44F004042A280DD080
:103A80006FF02F023078A0F13003092B09D807EB33
:103A9000870302EB4303C718761CF3E759F8047B4E
:103AA000761C30786C280FD006DC4C2817D068289C
:103AB0000DD06A2814D104E0742810D07A280FD1D0
:103AC0000DE044F400140AE044F4801401E044F4EE
:103AD00040147278824202D104F58014761C761C60
:103AE000307866280BD013DC582877D009DC002802
:103AF00075D04528F6D04628F4D047281AD19DE144
:103B000018E0632835D0642879D0652812D195E172
:103B1000702873D008DC6728F1D069286FD06E2830
:103B20000DD06F2806D1B5E073282CD0752875D03C
:103B3000782874D05A46179990476D1C75E1C4F3E4
:103B40000250022809D003280DD0D9F8001004280B
:103B50000DD00D6009F1040967E1D9F80010EA17EA
:103B6000C1E90052F6E7D9F800100D80F2E70D70B8
:103B7000F0E719F8041B8DF8001000208DF8010003
:103B8000EA46012003E059F804AB4FF0FF3061072B
:103B90004FF0000102D40DE008F101018846B9425E
:103BA0000FDA8045F8DB1AF808100029F4D108E094
:103BB00008F1010188468142FADB1AF80810002951
:103BC000F6D105985B46A0EB080721463846179AC0
:103BD00000F094FA284400EB080507E04DE029E1E5
:103BE0000DE01AF8010B5A4617999047B8F10108F1
:103BF000F7D25B4621463846179A13E142E00A2283
:103C00000092C4F302524FF0000A022A08D059F879
:103C100004CB032A4FEAEC710AD00DE029E02AE038
:103C200009F1070121F00702F2E802C1914609E01B
:103C30000FFA8CFC4FEAEC71042A03D14FFA8CFC8A
:103C40004FEAEC71002907DA0A460021DCF1000C8A
:103C500061EB02012D2202E0220504D52B228DF812
:103C60000420012203E0E20701D02022F7E790467A
:103C700059E00A2102E010220DE010214FF0000A65
:103C800000910BE010224FF0000A44F004040827D2
:103C9000009203E008224FF0000A0092C4F302529F
:103CA000022A05D059F804CB0021032A08D009E0E4
:103CB00009F1070121F00702F2E802C1914605E08F
:103CC0001FFA8CFC042A01D10CF0FF0C4FF0000805
:103CD000220728D5702806D0009B83F0100353EAF2
:103CE0000A0305D00EE040228DF80420012208E0EE
:103CF0005CEA010206D030228DF804208DF8050020
:103D000002229046009B83F0080353EA0A030AD17B
:103D10005CEA010201D1620705D530228DF804204A
:103D20004FF001087F1E582804D034A003900EA83D
:103D300002900DE036A0F9E753466046009AFCF782
:103D400067FA84460398825C0298401E02900270D3
:103D50005CEA0100F0D1029806A9081A00F1200AD5
:103D6000600702D524F4803400E00127574502DDC6
:103D7000A7EB0A0000E0002000EB0A010090059884
:103D80004144401A0590E00306D45B462146179A49
:103D9000059800F0B3F90544002706E001A85A464B
:103DA000C05D179990476D1C7F1C4745F6DBE0030B
:103DB0000CD55B462146179A059800F09FF90544FB
:103DC00004E030205A46179990476D1C0099481E10
:103DD00000900029F5DC08E0029802995A46007824
:103DE000491C0291179990476D1CBAF10001AAF184
:103DF000010AF1DC65E100000928010030313233AD
:103E00003435363738396162636465660000000016
:103E10003031323334353637383941424344454600
:103E20000000000000F058F90544761C30780028A6
:103E30007FF4ECAD19B02846BDE8F08F620700D4DE
:103E4000062709F1070222F0070CFCE80223E146ED
:103E500003F000485FEA080C02D00FF2702C0DE06E
:103E60005FEA045C02D50FF2682C07E05FEAC47CCD
:103E700002D00FF2602C01E0AFF2700C4FF0FF386F
:103E800023F00043CDF850C065280CD006DC45284F
:103E900009D046281DD047283DD13DE0662818D0DE
:103EA00067287ED138E00021112F01DB112000E0CE
:103EB000781CCDE9000106A90EA8FFF7DDFCDDE9BD
:103EC0000F010E9A03910021009207F1010A04915B
:103ED0004DE04FF000400097CDE9011006A90EA873
:103EE000FFF7CAFCDDE90F0203920E9B1199002235
:103EF000DDF80CA00093049211B9791C00EB010AC3
:103F0000B7EB0A0004D4C0F1FF3007F1010A0490B6
:103F1000AAEB0700019044E0012F00DA01270021FD
:103F2000112F01DD112000E03846CDE9000106A97E
:103F30000EA8FFF7A1FCDDE90F010E9A0391002105
:103F400004910092BA4621070CD40399514500DA36
:103F50008A46BAF1010F05DD009AAAF10101515C10
:103F6000302908D0B84202DA10F1040F06DA012134
:103F7000CDE9011015E0AAF10101E9E7002805DC0F
:103F8000049901440491AAEB000102E0411C51454F
:103F900000DD8A460499401A401C01904FF0004011
:103FA0000290200704D40198504501DBCDF804802D
:103FB00000208DF84F0002980DF14F07B0F1004F2F
:103FC00025D02B200E9002984FF0020800280CDA22
:103FD000404202902D200E9007E00A210298FCF743
:103FE00001F93031029007F8011DB8F10001A8F184
:103FF0000108F2DC02980028EFD1791E0E980870B3
:10400000307800F0200040F0450007F8020D12A8BB
:10401000C01B00F107081498007800B1012000EBE4
:104020000A01019801EBE07105984144401A401ED5
:104030000590E00306D45B462146179A059800F0E8
:104040005DF805441498007818B15A4617999047BE
:104050006D1CE00324D55B462146179A059800F0B5
:104060004DF805441CE00498002807DBDDE9030156
:10407000884203DD0098405C179901E017993020D1
:104080005A469047049805F10105401C0490019898
:10409000401E019004D12E205A46179990476D1C5E
:1040A000BAF10001AAF1010ADDDC05E017F8010B05
:1040B0005A46179990476D1CB8F10001A8F1010804
:1040C000F4DC5B462146179A0598ABE62D0000000C
:1040D0002B000000200000002DE9F04104460025DF
:1040E0001E461746880404D405E039462020B04710
:1040F0006D1C641EF9D52846BDE8F0812DE9F0411C
:10410000044600251E469046C80301D5302700E02E
:104110002027880404D505E041463846B0476D1C89
:10412000641EF9D52846BDE8F0814A68002A06D009
:104130000A68531C0B6010704868401E4860704746
:104140000A68531C0B6010707047000010B50028FF
:1041500021D0114B0022001F196803E0814203D8CF
:104160000A4649680029F9D152B11368841A9C4261
:1041700004D1006818441060104602E0506000E06E
:10418000186039B102680B1A934203D10B681A44C4
:1041900002604968416010BD04000020F0B50B309A
:1041A000154D20F007010024144A0FE003688B42EC
:1041B0000BD38B4205D95E1A43184768C3E90067E1
:1041C00000E04368136002C004E0021D106800288C
:1041D000ECD12046002802D1286808B10020F0BDAB
:1041E000064A07481060074A121A22F00702C0E97F
:1041F000002401202860D7E70800002004000020E8
:10420000C4010020C081002000000000010203045E
:1042100001020304060708093D3D3D3D3D3D3D3D8E
:104220003D3D2054696D6572576865656C20546525
:1042300073742046696E697368203D3D3D3D3D3D88
:104240003D3D3D3D0D0A003D3D3D3D3D3D3D3D3D3E
:104250003D2054696D6572576865656C20546573BF
:1042600074205374617274203D3D3D3D3D3D3D3DA4
:104270003D3D0D0A0054696D6572576865656C2097
:10428000637265617465206661696C65640D0A001E
:104290007375626D697420696D6D656469617465BB
:1042A000207461736B206661696C65640D0A00633C
:1042B000616E63656C2063616E63656C207461730D
:1042C0006B206661696C65640D0A007375626D69C7
:1042D000742063616E63656C207461736B2066612A
:1042E000696C65640D0A007375626D6974206F6E88
:1042F0006573686F7420313030306D73206661698A
:104300006C65640D0A007375626D697420666F7266
:104310006576657220323030306D73206661696C6D
:1043200065640D0A007375626D69742063726F7342
:10433000732D726F756E6420353030306D7320666A
:1043400061696C65640D0A007375626D6974207231
:10435000657065617420313530306D732066616938
:104360006C65640D0A0063616E63656C2074617333
:104370006B207375626D6974746564207468656E12
:104380002063616E63656C6C65640D0A0063616E29
:1043900063656C20666F7265766572207461736BFD
:1043A0000D0A00756E6B6E6F776E207461736B20F3
:1043B00072756E0D0A0025732072756E0D0A0074F9
:1043C00069636B5F6D73203D203530306D732C2039
:1043D000736C6F745F6E756D203D20382C2077688C
:1043E00065656C5F6379636C65203D2034303030E7
:1043F0006D730D0A00696D6D656469617465207483
:1044000061736B206964203D2030782530386C78EA
:104410000D0A0063616E63656C207461736B2069C3
:1044200064203D2030782530386C780D0A006F6E9E
:104430006573686F7420313030306D73206964208B
:104440003D2030782530386C780D0A00666F726533
:1044500076657220323030306D73206964203D20E3
:1044600030782530386C780D0A0063726F73732DC5
:10447000726F756E6420353030306D732069642042
:104480003D2030782530386C780D0A0072657065F3
:10449000617420313530306D73206964203D2030E7
:1044A000782530386C780D0A005B256C75206D73AB
:1044B0005D2000696D6D6564696174652074617368
:1044C0006B0063616E63656C6C6564207461736B13
:1044D0002073686F756C64204E4F542072756E00A7
:1044E0006F6E6573686F7420313030306D730066A5
:1044F0006F7265766572206576657279203230302C
:10450000306D730063726F73732D726F756E6420FC
:104510006F6E6573686F7420353030306D73007264
:10452000657065617420332074696D6573206576EC
:1045300065727920313530306D7300E5B0BEE983A6
:10454000A8E8B68AE7958C3A257A750A00E5BD9306
:10455000E5898DE5B7B2E58886E9858D3A257A75D6
:104560000A00E5A4B4E983A8E7A0B4E59D8F3A2545
:104570007A750A00E58886E9858DE5A4B1E8B4A5D9
:104580003A257A750A00626C6F636BE680BBE6952C
:10459000B03A257A750A00E58E86E58FB2E5B3B0AC
:1045A000E580BC3A257A750A00E9878DE5A48DE996
:1045B000878AE694BE3A257A750A002573E58685D2
:1045C000E5AD98E6B1A0E4BFA1E681AF0A00626C58
:1045D0006F636BE4B88DE883BDE4B8BA30002E2E6B
:1045E0002F4D656D6F7279506F6F6C2F4D656D6FCC
:1045F0007279506F6F6C2E6300E5A4B4E983A8E76D
:10460000A0B4E59D8FE6ACA1E695B03A25642CE513
:10461000B0BEE983A8E8B68AE7958CE6ACA1E6953A
:10462000B03A2564004D656D6F7279506F6F6C5FA5
:1046300046726565002E2E2F4D656D6F7279506F35
:104640006F6C5C426C6F636B5F4C6973742E6800B7
:10465000426C6F636B4C6973745F70757368004173
:1046600072675F436865636B00426C6F636B5F43A7
:104670006865636B004D656D6F7279506F6F6C5F2D
:10468000436865636B006372656174655F4D656D5A
:104690006F7279506F6F6C004D656D6F7279506FEE
:1046A0006F6C5F4D656D5365745F5A65726F004D39
:1046B000656D6F7279506F6F6C5F4F627365727664
:1046C0006572004D656D6F7279506F6F6C5F4465F8
:1046D00073746F727900E5BD93E5898DE68C87E987
:1046E0009288E4B88DE698AFE59088E6B395626C61
:1046F0006F636BE8B5B7E5A78BE59CB0E59D8000DF
:10470000E5BD93E5898DE68C87E99288E4B88DE66E
:1047100098AFE69CACE58685E5AD98E6B1A0E68C61
:1047200087E9928800636F756E74E5B08FE4BA8E86
:1047300032E6B2A1E69C89E6848FE4B98900E5BD42
:1047400093E5898DE68C87E99288E5B0BEE983A878
:10475000E8B68AE7958C00E5BD93E5898DE68C8700
:10476000E99288E5A4B4E983A8E8A2ABE7A0B4E5A0
:104770009D8F00E5BD93E5898DE58685E5AD98E6DD
:10478000B1A0E69C89E69CAAE5BD92E8BF98E8B591
:1047900084E6BA9000E5AD98E59CA8E59CB0E59D5F
:1047A00080E8A2ABE5A49AE6ACA1E9878AE694BECC
:1047B00000E5BD93E5898DE7B4AFE8AEA1E58F963E
:1047C000E6B688E695B0EFBC9A25752D2D2D2D2DDA
:1047D0002D2D2D2D2D2D2D2D2D2D2D2D2D2D2D0A2C
:1047E00000E5BD93E5898DE7B4AFE8AEA1E5AE8CF9
:1047F000E68890E695B0EFBC9A25752D2D2D2D2DD0
:104800002D2D2D2D2D2D2D2D2D2D2D2D2D2D2D0AFB
:1048100000E5BD93E5898DE7B4AFE8AEA1E68F90E2
:10482000E4BAA4E695B0EFBC9A25752D2D2D2D2D5B
:104830002D2D2D2D2D2D2D2D2D2D2D2D2D2D2D0ACB
:1048400000E5BD93E5898DE68E92E9989FE4BBBBB8
:10485000E58AA1E695B0EFBC9A2568752D2D2D2D22
:104860002D2D2D2D2D2D2D2D2D2D2D2D2D2D2D2D78
:104870000A00E4BDBFE794A8E68385E586B52D2D43
:104880002D2D2D2D2D0A00E8BDAFE4BBB6E5AE9A67
:10489000E697B6E599A8E697B6E997B4E7B2BEE51C
:1048A000BAA63A2568752CE6A7BDE695B0E4B8BA75
:1048B0003A25750A00E7B2BEE5BAA6E5BF85E9A1CB
:1048C000BBE5A4A7E4BA8E3000E6A7BDE695B0E448
:1048D000B88DE883BDE4B8BA30002E2E2F54696D30
:1048E00065725F576865656C2F54696D65725768AE
:1048F00065656C2E630054696D6572576865656CFB
:104900005F416C6C6F635F4E6F6465002E2E2F5499
:10491000696D65725F576865656C5C54696D657239
:104920004E6F64652E680054696D65724E6F6465E4
:104930005F507573680054696D65725F576865658F
:104940006C5F43616E63656C5F5461736B005469A7
:104950006D65725F576865656C5F5375626D6974EC
:104960005F5461736B0054696D65725F4E6F64656F
:104970005F44656C0054696D65724E6F64655F4499
:10498000656C004372656174655F54696D65725F43
:10499000576865656C0054696D65725F4E6F64653C
:1049A0005F52756E0054696D65725F576865656C1E
:1049B0005F4C6F6F700054696D65725F4E6F646518
:1049C0005F52657375626D697400E88A82E782B927
:1049D000E58886E9858DE5A4B1E8B4A500E4BBBB14
:1049E000E58AA16964E4B88DE5AD98E59CA800E589
:1049F000AE9AE697B6E599A8E5B7B2E585B3E9972B
:104A0000AD00E4BBBBE58AA1E68C87E99288E4B8F7
:104A10008DE883BDE4B8BAE7A9BA00E88A82E782E4
:104A2000B9E4B88DE883BDE4B8BAE7A9BA000000DC
:104A3000504A000800000020880000005838000894
:104A4000D84A00088800002038850000683800082F
:104A50000000000000000000000000000100000055
:104A60000200000004000000080000001000000028
:104A70002000000040000000800000000001000055
:104A80000002000000040000007A030AC24400088B
:104A900004450008EF440008B3440008E04400085F
:104AA0001F450008FFFFFFFF8D0F00085D11000884
:104AB000ED1000080513000809100008B12A0008CD
:104AC00005270008392A00081D280008D1280008F9
:084AD000A12A0008010000000A
:040000050800018965
:00000001FF
